:020000040800F2
:100000000050002021020008290200082D020008EB
:1000100045020008490200086102000800000000D3
:10002000000000000000000000000000790200084D
:100030007D0200080000000081020008E5030008BE
:100040009502000895020008950200089502000834
:100050009502000895020008950200089502000824
:100060009502000895020008950200089502000814
:100070009502000895020008950200089502000804
:1000800095020008950200089502000895020008F4
:1000900095020008950200089502000895020008E4
:1000A00095020008950200089502000895020008D4
:1000B0009502000895020008000000009502000863
:1000C00095020008000000000000000095020008F2
:1000D00000000000950200089502000800000000E2
:1000E0009502000895020008950200080000000033
:1000F0000000000000000000000000000000000000
:1001000000000000000000005FF808F100B583B0B7
:1001100000F0E8F8304B314A1360314A1360314B3C
:10012000314A03E011681960043304322F498B42CD
:10013000F8D32A4B1A682E4B9A4204D1284B1A68DE
:100140002C4B9A4200D0FEE7234B2B4A13602B4ADC
:1001500013602B4B02E000221A600433294A9342B9
:10016000F9D3254B1B6813B9244B1B6803B1FEE779
:1001700000F0C4F8694601A800F0A8F8224C234B0F
:100180001C1BA410002504E01F4B53F82530984792
:100190000135AC42F8DC1E4C1E4B1C1BA410002584
:1001A00004E01B4B53F8253098470135AC42F8DC8E
:1001B0000099019800F0ECF80546174C174B1C1BF2
:1001C000A41004E0013C144B53F824309847002C51
:1001D000F8DC284600F074F8BABADECA0000002045
:1001E000200000200000002000080008240000205B
:1001F00078563412325476982400002030000020C3
:100200002400002034000020C0020008C0020008C2
:10021000C0020008C0020008C0020008C0020008B6
:1002200008B5FFF773FF00BF00BEFEE71EF0040F26
:100230000CBFEFF30880EFF309807146124A1047B4
:1002400000BEFEE700BEFEE71EF0040F0CBFEFF39A
:100250000880EFF3098071460C4A104700BEFEE7A4
:100260001EF0040F0CBFEFF30880EFF30980714616
:10027000074A104700BEFEE700BEFEE700BEFEE7ED
:1002800000BEFEE770470000410200085D02000862
:080290007502000800BEFEE744
:1002980000080008000000202400002000080008D2
:1002A80000000000000000002400002034000020AE
:0802B80000000000000000003E
:1002C000FEE700BF08B50120FFF7FAFF0123036036
:1002D000014B0B60704700BF0400002008B5FFF71A
:1002E000F1FF00BF08B500F001FA024B024A9A6024
:1002F00008BD00BF00ED00E00000000808B500F0F8
:100300001DFA08BD30B583B00121102000F062F95C
:100310004FF40055ADF8045003238DF80630102338
:100320008DF80730054C01A9204600F05FF82946FA
:10033000204600F0EFF803B030BD00BF00100140D0
:100340000A4B1B680A4AA2FB03239B09013BB3F13A
:10035000807F09D2074A5360F021074B83F82310AE
:100360000023936007231360704700BF1C00002028
:10037000D34D621010E000E000ED00E0034B186088
:10038000024B1B68002BFBD1704700BF2C000020E4
:1003900010B5FFF7D5FFFFF7B5FF00244FF400516C
:1003A0000A4800F0E7F814B94FF47A7001E040F21F
:1003B000EE20FFF7E3FF4FF40051044800F0AAF8E5
:1003C000FA20FFF7DBFF0134E8E700BF001001402F
:1003D000034B1B681BB1024A1368013B1360704753
:1003E0002C00002008B5FFF7F3FF08BDF8B505465F
:1003F0000C46464B98421BD003F58063984217D0B9
:1004000003F58063984213D003F5806398420FD0C0
:1004100003F5806398420BD003F58063984207D0C0
:1004200003F58063984203D0B2213948FFF756FFA5
:10043000E3788BB1042B0FD0282B0DD0482B0BD099
:10044000142B09D0102B07D01C2B05D0182B03D050
:10045000B3212F48FFF742FF23881BB9B4212C4852
:10046000FFF73CFFE37803F00F06304613F0100F60
:100470000AD0A378013BDBB2022B03D9BB2124486D
:10048000FFF72CFFA07830432378E3B12E680023D8
:1004900016E001229A40218832EA01010FD1990029
:1004A0000F278F4026EA070600FA01F10E43E17894
:1004B000282901D16A6102E0482900D12A6101336B
:1004C000072BE6D92E602388FF2B1ED96E680023E8
:1004D00018E003F1080101228A40218832EA010173
:1004E0000FD199000F278F4026EA070600FA01F185
:1004F0000E43E178282900D16A61E178482900D1CA
:100500002A610133072BE4D96E60F8BD0008014071
:10051000D007000838B504460D46144B98421CD04D
:1005200003F58063984218D003F58063984214D095
:1005300003F58063984210D003F5806398420CD095
:1005400003F58063984208D003F58063984204D095
:1005500040F269110648FFF7C1FE25B94FF4B571A5
:100560000348FFF7BBFE256138BD00BF000801400E
:10057000D007000838B504460D46144B98421CD0ED
:1005800003F58063984218D003F58063984214D035
:1005900003F58063984210D003F5806398420CD035
:1005A00003F58063984208D003F58063984204D035
:1005B00040F279110648FFF791FE25B94FF4BD715D
:1005C0000348FFF78BFE656138BD00BF000801409E
:1005D000D007000838B504460D460E4B034003B95A
:1005E00020B940F24A410C48FFF778FE012D04D9AA
:1005F00040F24B410848FFF771FE25B1074A936965
:100600001C43946138BD054A936923EA040494614C
:1006100038BD00BF0200C0FFE8070008001002401C
:1006200082B00023019300932C4A136843F4803373
:1006300013602A4B1B6803F400330093019B0133C2
:100640000193009B1BB9019BB3F5A06FF1D1234B24
:100650001B6813F4003F02D00123009301E0002344
:100660000093009B012B36D11D4B1A6842F01002FB
:100670001A601A6822F003021A601A6842F0020235
:100680001A60A3F580535A685A605A685A605A68CB
:1006900042F480625A605A6822F47C125A605A68A6
:1006A00042F4E8125A601A6842F080721A600B4BEA
:1006B0001B6813F0007FFAD0084B5A6822F003023F
:1006C0005A605A6842F002025A60044B5B6803F0B9
:1006D0000C03082BF9D102B0704700BF0010024094
:1006E0000020024008B5FFF79BFF08BD08B5104B7E
:1006F0001A6842F001021A6059680E4A0A405A60AC
:100700001A6822F0847222F480321A601A6822F485
:1007100080221A605A6822F4FE025A604FF41F02C7
:100720009A60FFF7DFFF4FF00062034B9A6008BD4D
:10073000001002400000FFF800ED00E01F4B5B6876
:1007400003F00C03042B06D0082B08D03BBB1C4A3B
:100750001C4B1A6026E01A4A1A4B1A6022E0174A0C
:1007600053685268C3F38343023312F4803F05D1C8
:10077000154A02FB03F3134A136013E00F4A526851
:1007800012F4003F05D0104A02FB03F30D4A136038
:1007900008E00B4A02FB03F30A4A136002E0084A2E
:1007A000084B1A60054B5B68C3F30313074AD35C1D
:1007B000DAB204490B68D3400B6070470010024066
:1007C00000127A001C00002000093D000C000020EF
:1007D0002E2E2F7372632F73746D3332663130781F
:1007E0005F6770696F2E63002E2E2F7372632F73F5
:1007F000746D3332663130785F7263632E6300004C
:10080000785634122800002000000000000000008C
:1008100000000000010203040607080900A24A04C0
:040820003254769840
:040000050800010DE1
:00000001FF
